S0180000476363426F61726450726F6A656374322E737265630E
S214400000303E4020CD084000C9084000C9084000A6
S214400010C9084000C9084000C90840000000000068
S214400020000000000000000000000000C90840007A
S214400030C908400000000000C9084000C908400048
S214400040C9084000C9084000C9084000C908400027
S214400050C9084000C9084000C9084000C908400017
S214400060C90840000000000025074000390740004E
S2144000704D074000C9084000C9084000C908400074
S2144000806107400075074000C9084000C9084000A5
S214400090C9084000C9084000C9084000C9084000D7
S2144000A0C9084000C9084000C9084000C9084000C7
S2144000B0C9084000C9084000C9084000C9084000B7
S2144000C0C9084000C9084000C9084000C9084000A7
S2144000D0C9084000C9084000C9084000C908400097
S2144000E0C9084000C9084000C9084000C908400087
S2144000F0C9084000C9084000C9084000C908400077
S214400100C9084000C9084000C9084000C908400066
S214400110C908400000000000000000000000000089
S214400120C9084000C9084000C9084000C908400046
S214400130C9084000C9084000C9084000C908400036
S214400140C9084000C9084000C9084000C908400026
S214400150C9084000C9084000C9084000C908400016
S214400160C9084000C908400010B5054C237833B98B
S214400170044B13B10448AFF300800123237010BD35
S214400180741D402000000000901440000C4B43B10A
S2144001900C480D4910B5AFF300800C48036823B9EE
S2144001A010BD0A48036833B97047094B002BF7D097
S2144001B0BDE810401847064B002BF5D0184700BF47
S2144001C00000000090144000781D4020901440002D
S2144001D0000000002DE9F04782B002AB03E90300BF
S2144001E01746009E019CDEB9354800FB04F090FBA4
S2144001F0F2F000283BD04FEAE079324BA0FB0301F7
S21440020003FB0911304A0023DFF8D4804FF0000981
S21440021010EB080041EB09012C4DA8472C4B9847A2
S214400220C4EB0415AD0006FB05F595FBF7F5294B29
S21440023093FBF6F84FF480712748284B9847002DDB
S21440024036DD204CA8FB04014246D31704FB0311BD
S2144002501D4A0023224E0027801979411B4CA04797
S214400260824600241F4FDFF88090194E0FE033205F
S214400270174B9847D4E73320B0474FF08061384655
S214400280164B98473320B0470134A54210D04FF064
S21440029080613846C847B8F1000FECD05046B047AA
S2144002A04FF0806138460D4B98475046B047EBE7D5
S2144002B04FF4807108480C4B984702B0BDE8F08771
S2144002C00087930300A3E111E0835A000D0E40001F
S2144002D00100402020A1070000120E409504400077
S2144002E0DF835A0000140E409104400084B02DE98C
S2144002F0F84308AC84E80F00D19E099BF3B123462F
S2144003000025013508335C68002CFAD1002D15DD38
S21440031033789BB9DFF83090DFF83080094FD09AB9
S21440032008AB03EBC40393E80300C8474046B8470E
S2144003300134A54202D03378002BF0D0BDE8F84314
S21440034004B0704701004020D5014000CA4A13005F
S214400350D0F820333BB32DE9F047ADF5467D044653
S2144003600026013600F54970D0F82053002DF8D10C
S214400370002E14DD0F464FF4457ADFF82C90DFF858
S2144003802C80C597524604F110016846C84794E849
S2144003900F00C047013504F54974AE42F1D10DF562
S2144003A0467DBDE8F08770476D114000ED02400085
S2144003B02DE9F0410E1E17DD04460025DFF830809B
S2144003C00A4F6068C0472369002B14BF4FF0605146
S2144003D04FF02051B3FA83F35B09E2682068B847D0
S2144003E001351434AE42ECD1BDE8F08189054000B9
S2144003F0A908400038B504460D46064B984720B934
S21440040029462046044B984738BD29462046034B8C
S214400410984738BD190640009104400095044000B6
S21440042010B51048104B98473E2100200F4B984778
S2144004300F4CA0470028FCD00E4B98470E4A0F4B57
S2144004409A620F4CA0470028FCD002200D4B9847DC
S21440045000200D4B98470D4B98470248024B984753
S21440046010BD00BF80D1F008A10A4000250840001A
S2144004707908400089084000013F182000060E40D9
S2144004809908400089074000C10740009509400090
S21440049001637047416370474264B1F1C05F3AD030
S2144004A013D8B1F1006F25D0B1F1805F0AD1036F48
S2144004B013430367436F416F0B4023EA02034367CE
S2144004C0426070470029FBD17047B1F1205F21D0D0
S2144004D009D8B1F1005FF3D1036F13430367436F4D
S2144004E013434367ECE7B1F1405F13D0B1F1605F6F
S2144004F010D0E5E710B4016F046FD34321401C468B
S21440050019400167436F416F0B4023404367426089
S2144005105DF8044B7047036F016F0B4023EA0203FC
S2144005200367436F13434367CAE7416412F0010F02
S2144005300DD1016612F00A0F0BD0016212F0020FC5
S21440054009D112F0080F08D0C0F8841005E04166C3
S214400550F0E74162F2E7C0F8801041610160704701
S21440056010B4019C41644CB901664BB101654AB96F
S2144005704163016101605DF8044B70474166F4E7F2
S2144005804165F4E70163F4E770B582B00546164668
S2144005901C46B1F1005F14D00AD9B1F1405F24D0B7
S2144005A0B1F1605F21D0B1F1205F17D000201AE092
S2144005B0B1F1805F05D0B1F1C05F02D0B1F1006FFC
S2144005C0F4D132462846114B984714F0010F02D119
S2144005D02E66012007E06E66012004E01A4631468A
S2144005E00B4B9847012002B070BD04F00103009306
S2144005F0C4F38003B1F1605F14BF0022012231468C
S2144006002846044CA0470120EDE700BF990440006F
S2144006102B05400061054000836B0B4214BF012050
S2144006200020704712F0100F12D0C0F8B01012F031
S214400630200F07D0C0F8D41012F0400F05D0C0F8F5
S214400640C0107047C0F8D010F6E7C0F8C410704726
S214400650C0F8B410704701647047C06C7047806C37
S214400660704700002DE9F041044688460E4B9847F7
S214400670054620460D4B9847054013D00C4C04F1D8
S214400680600603E0B4420DD010345DB120684045AA
S214400690F8D161682942F5D0E3689847636825EA4F
S2144006A00305EFE7BDE8F0815B0640005F064000CB
S2144006B0901D4020F8B5184C2668062E2AD84FF0D4
S2144006C0000C6446154F04E00134E4B2A446A6424A
S2144006D009D3A64625017D598D42F5D107EB041571
S2144006E06D689542F0D10D4D4FEA0E1E05EB0E0497
S2144006F045F80E106260A3600699E16001366645D3
S21440070005D011461A46064B98470020F8BD0249C8
S2144007100E60F6E70120F8BD001E4020901D4020E8
S2144007202506400008B50A210148024B984708BDF7
S214400730000E0E406506400008B50B210148024BEE
S214400740984708BD00100E406506400008B50C21CD
S2144007500148024B984708BD00120E40650640000F
S21440076008B510210148024B984708BD00140E40BA
S2144007706506400008B511210148024B984708BD60
S21440078000160E4065064000032811D0042812D0FB
S21440079002280CBF4FF480710021084A136B23F4E3
S2144007A040730B431363936E13F0080FFBD07047F0
S2144007B04FF44071F1E74FF40071EEE700060E404B
S2144007C0174A136B23F0700318431063936E13F0AD
S2144007D0080F0AD14FF4805311498A6E12F0080F61
S2144007E003D1013BF9D1012070470D4A136B23F02A
S2144007F0030343F002031363936E13F0080F0AD10A
S2144008004FF4805306498A6E12F0080F05D1013B1B
S214400810F9D101207047002070470020704700BF84
S21440082000060E40A0B90E48036A090289B20D4A76
S2144008301A400D4B1343194301620246936E13F060
S214400840010FFBD0064A116A084B0B4313627047F0
S21440085003490B6A064A1A40064B13430B6270471D
S21440086000060E40FCFFC8FF0100370000003701BD
S214400870FCFFC8FE02003701024B986E00F4803041
S214400880704700BF00060E404FF00052014B9A6280
S214400890704700BF00060E40024B986E00F0020004
S2144008A0704700BF00060E4000F07F00054BC3F8BF
S2144008B00C01D3F80C2142F01022C3F80C21002082
S2144008C0704700BF00060E40FEE7000000B583B04C
S2144008D0254B264A9A4210D0254B234A9A420CD2A0
S2144008E0013B9B1A23F00303043313441F4951F87A
S2144008F0040B42F8040B9A42F9D11E4B1E4A9A4208
S2144009000AD2013B9B1A23F003030433134400210D
S21440091042F8041B9342FBD1184A194B23F07F033D
S2144009209360EFF31083B3FA83F35B09019372B6D7
S214400930BFF35F8F0022134B1A700199124A136857
S21440094043F470031360BFF34F8FBFF36F8F29B12B
S21440095001220C4B1A70BFF35F8F62B60B4B984761
S2144009600B4B9847FEE700BF000040209014400025
S214400970741D4020301E4020741D402000ED00E0D5
S214400980000040000A00402088ED00E01D114000B5
S2144009906D0D40003B4B1B6B03F00303012B1DD03A
S2144009A083B1022B36D0374B1B6B03F07003702B92
S2144009B05FD0344B1A6B3449C2F302120B68D340F3
S2144009C00B607047314B5B6913F0800F14BF4FF4D8
S2144009D000424FF4FA422C4B1A60E4E7294B1B6A5C
S2144009E013F0807F03D02A4A274B1A60DBE7294A58
S2144009F0254B1A60234B1B6A03F07003102B05D05F
S214400A00202BD0D1224A204B1A60CCE7224A1E4BDC
S214400A101A60C8E71B4B1B6A13F0807F16D01C4A2F
S214400A20194B1A60174B1B6B03F00303022BBAD10A
S214400A30144A916A926A1448C1F30A41036801FB5A
S214400A400333D2B2B3FBF2F30360ACE7114A0E4B6A
S214400A501A600C4B1B6A03F07003102B05D0202B3A
S214400A60E0D10B4A084B1A60DCE70B4A064B1A608B
S214400A70D8E7054A13680949A1FB03135B081360CE
S214400A80704700BF00060E400C00402010180E4075
S214400A90001BB70000093D0000127A00ABAAAAAAC4
S214400AA0164B984213D9164B984215D9154B984277
S214400AB016D9154B984217D9144B984218D9144B4F
S214400AC0984294BF134A144A144B1A6070474FF02A
S214400AD08062124B1A607047114A104B1A6070477A
S214400AE0104A0E4B1A6070470F4A0C4B1A607047FC
S214400AF04FF00422094B1A60704700BFBFF35E01F7
S214400B007FE7BD023FDB1C04FFCE7B05BFC2DA0693
S214400B107FB639080005000400060004000C0E40AD
S214400B200001000400020004000300040122014BFF
S214400B301A707047091E40200122014B1A707047F8
S214400B40081E402010B5124C22682168114B53F8FD
S214400B502110114B53F82200104B98472368022B64
S214400B6012D00B4A136801331360094B1A68196890
S214400B70084B53F82110084B53F82200074B984770
S214400B800122074B1A7010BD00222260EDE700BF1D
S214400B90041E4020F4124020E8124020F503400096
S214400BA0081E40202DE9F04FD3B0614B98474FF4D4
S214400BB00042604B5A60604C4DAE25460FCD0FC686
S214400BC0D5F800A048AE04F114050FCD0FC6D5F8F1
S214400BD0009043AE04F128050FCD0FC6D5F800802F
S214400BE03EAE04F13C050FCD0FC6D5F800C039AE79
S214400BF004F150050FCD0FC6D5F800E034AE04F131
S214400C0064050FCD0FC62F682FAE04F178050FCDC3
S214400C100FC62E682AAD8C340FCC0FC5256802ACA3
S214400C200DF59A7BBBE80F000FC4C4F800A007ACD4
S214400C300DF5907ABAE80F000FC4C4F800900CACDB
S214400C400DF58679B9E80F000FC4C4F8008011ACE2
S214400C500DF1F808B8E80F000FC4C4F800C016AC91
S214400C600DF1E40CBCE80F000FC4C4F800E01BAC68
S214400C700DF1D00EBEE80F000FC4276020AC2FAF9A
S214400C800FCF0FC4266025AC2AAE0FCE0FC425600A
S214400C9008210DEB0100294B9847294D294B00931D
S214400CA050234FF0805210212846DFF8B490C847B2
S214400CB04FF080512846DFF8AC80C047224C4FF4B6
S214400CC080332360802784F81073204E204B009397
S214400CD050234FF000420C213046C8474FF00041A9
S214400CE03046C0474FF48053236084F80C73DFF8D7
S214400CF078A0184B009350234FF400220A21504608
S214400D00C8474FF400215046C0474FF480632360E5
S214400D1084F80A734FF4807130460F4B98474FF073
S214400D20806128460D4B984753B0BDE8F08F00BF12
S214400D302104400050180E40C0134000B10340004C
S214400D4000140E402D0B400000E100E000120E4063
S214400D50390B4000450B400091044000950440008C
S214400D60B506400057064000000E0E4080B51C4BAE
S214400D70984700221B4B1A701B4B1A701B4B1A606D
S214400D801A6819681A4B53F821101A4B53F8220068
S214400D90194B9847134C154D134E0027B04606E0A6
S214400DA041461648164B984727703378ABB9237898
S214400DB0002BFAD02B68002BF2D02B68012B07D0E3
S214400DC02B68022BF0D141460E480D4B9847EBE777
S214400DD041460D480A4B9847E6E73770E7E700BFBD
S214400DE0A50B4000091E4020081E4020041E40203F
S214400DF0F4124020E8124020F50340001000402046
S214400E0051034000001340207C09402053B94AB9A2
S214400E10002908BF00281CBF4FF0FF314FF0FF30BD
S214400E2000F07AB9ADF1080C6DE904CE00F006F892
S214400E30DDF804E0DDE9022304B070472DE9F04711
S214400E408C460D460446089E002B51D18A421746D2
S214400E506DD9B2FA82FEBEF1000F0BD0CEF1200C57
S214400E6001FA0EF520FA0CFC02FA0EF74CEA050CD5
S214400E7000FA0EF44FEA174A250CBCFBFAF81FFAA4
S214400E8087F90AFB18CC45EA0C4508FB09F3AB4248
S214400E900AD9ED1908F1FF3280F02381AB4240F2C7
S214400EA02081A8F102083D44ED1AA4B2B5FBFAF041
S214400EB00AFB105544EA054400FB09F9A14509D947
S214400EC0E41900F1FF3380F00A81A14540F2078122
S214400ED002383C44A4EB090440EA08400021002EB6
S214400EE061D024FA0EF4002334607360BDE8F087C6
S214400EF08B4207D9002E54D0002186E821000846B0
S214400F00BDE8F087B3FA83F1002940F08E80AB420B
S214400F1002D3824200F2FA80841A65EB0305012070
S214400F20AC46002E3FD086E81010BDE8F08712B9D8
S214400F300127B7FBF2F7B7FA87FEBEF1000F34D1B0
S214400F40EB1B3A0C1FFA87FC0121B3FBF2F8250C89
S214400F5002FB183345EA03450CFB08F3AB4207D9BE
S214400F60ED1908F1FF3002D2AB4200F2D180804644
S214400F70ED1AA3B2B5FBF2F002FB105543EA054466
S214400F800CFB00FCA44507D9E41900F1FF3302D25C
S214400F90A44500F2B8801846A4EB0C0440EA08408A
S214400FA09DE731463046BDE8F087CEF1200405FA8D
S214400FB00EF307FA0EF720FA04F83A0C25FA04F472
S214400FC048EA0308B4FBF2F14FEA184502FB114425
S214400FD01FFA87FC45EA044501FB0CF3AB4200FAD6
S214400FE00EF409D9ED1901F1FF3080F08A80AB424A
S214400FF040F2878002393D44EB1A1FFA88F5B3FB6E
S214401000F2F002FB103345EA034500FB0CF3AB421B
S21440101007D9ED1900F1FF386FD2AB426DD90238CF
S2144010203D44EB1A40EA01418FE7C1F1200722FA1E
S21440103007F88B4005FA01F448EA030320FA07FE56
S2144010404FEA134CFD404EEA040EB5FBFCF94FEA5E
S2144010501E440CFB19551FFA83F844EA054509FB64
S21440106008F4AC4202FA01F200FA01FA08D9ED1887
S21440107009F1FF3043D2AC4241D9A9F102091D44DF
S2144010802D1B1FFA8EFEB5FBFCF00CFB10554EEAEE
S214401090054400FB08F8A04507D9E41800F1FF35E1
S2144010A029D2A04527D902381C4440EA0940A4EB7F
S2144010B00804A0FB02894C45C6464D4615D312D0BF
S2144010C056B1BAEB0E0364EB050404FA07F7CB40BF
S2144010D01F43CC40376074600021BDE8F087184657
S2144010E0F8E69046E0E6C245EAD2B8EB020E69EB77
S2144010F003050138E4E72846D7E7404691E78146AE
S214401100BEE7014678E702383C4445E7084608E72C
S214401110A8F102083D442BE7704700BF70B50F4E5C
S2144011200F4D761BB61018BF002405D0013455F875
S214401130043B9847A642F9D10A4E0B4D761B00F069
S21440114091F9B61018BF002406D0013455F8043B78
S2144011509847A642F9D170BD70BD00BF70144000DC
S214401160701440007814400070144000844641EAF1
S214401170000313F003036DD1403A41D351F8043BCA
S21440118040F8043B51F8043B40F8043B51F8043B1C
S21440119040F8043B51F8043B40F8043B51F8043B0C
S2144011A040F8043B51F8043B40F8043B51F8043BFC
S2144011B040F8043B51F8043B40F8043B51F8043BEC
S2144011C040F8043B51F8043B40F8043B51F8043BDC
S2144011D040F8043B51F8043B40F8043B51F8043BCC
S2144011E040F8043B51F8043B40F8043B51F8043BBC
S2144011F040F8043B51F8043B40F8043B403ABDD22B
S214401200303211D351F8043B40F8043B51F8043BCC
S21440121040F8043B51F8043B40F8043B51F8043B8B
S21440122040F8043B103AEDD20C3205D351F8043B5B
S21440123040F8043B043AF9D2043208D0D2071CBF27
S21440124011F8013B00F8013B01D30B880380604650
S214401250704700BF082A13D38B078DD010F00303C6
S2144012608AD0C3F10403D21ADB071CBF11F8013B36
S21440127000F8013B80D331F8023B20F8023B7BE785
S214401280043AD9D3013A11F8013B00F8013BF9D2B0
S2144012900B7803704B7843708B788370604670474A
S2144012A0024B13B1024800F005B87047000000003A
S2144012B0C1124000002301461A46184600F01EB8E8
S2144012C038B50A4C0A4D641BA4100AD004F180437A
S2144012D0013B05EB8305013C55F804399847002C43
S2144012E0F9D1BDE8384000F0C7B800BF88144000C8
S2144012F084144000704700BF704700BF2DE9F84394
S2144013002C4D0646286898460F469146FFF7F2FF52
S214401310294B1C68D4F84831002B3ED05A681F2A07
S2144013201CDC02F1010E76B103EB82010124C1F808
S2144013308890D3F8880194402043022EC3F8880151
S214401340C1F8088123D00232C3F804E0286843F885
S2144013502270FFF7D1FF0020BDE8F883174B0BB390
S2144013604FF4C870AFF300800346D8B1D4F8482194
S2144013700260002141600A46C4F848014FF0010E61
S214401380C0F88811C0F88C11002EDCD0CCE7D3F81A
S2144013908C110C43C3F88C41D5E704F5A673C4F80A
S2144013A04831BBE72868FFF7A7FF4FF0FF30BDE89E
S2144013B0F88300BF701D402060144000000000000D
S2144013C000120E400C000000080000000001000063
S2144013D001000000000E0E400A0000000000000061
S2144013E0010000000100000000120E400C0000004A
S2144013F01E000000000000400100000000100E40EB
S2144014000B00000002000000040000000100000085
S21440141000140E40100000001A00000000000004F7
S2144014200100000000140E401000000010000000F4
S214401430000000100000000000120E400C000000EB
S2144014401F0000000000008000000000000E0E405C
S2144014500A00000013000000000008000000000022
S21440146048194020F8B500BFF8BC08BC9E467047F7
S214401470A11240008D014000F8B500BFF8BC08BC82
S20C4014809E46704769014000DA
S20C401488B4F9FF7F01000000EB
S214401490BFF35F8F0138FBD17047010000093D0064
S2144014A0D201000001000000D2010000010000004F
S2144014B0B8010000010000008801000001000000A3
S2144014C0D201000002000000000000000200000000
S2144014D0D201000001000000D2010000010000001F
S2144014E0B801000001000000880100000100000073
S2144014F0D201000001000000B80100000100000019
S2144015008801000001000000B80100000200000051
S21440151088010000010000005D010000010000009D
S21440152088010000020000005D010000010000008C
S21440153026010000010000005D01000002000000DE
S2144015402601000001000000260100000100000006
S21440155026010000010000005D01000001000000BF
S21440156026010000010000005D01000001000000AF
S2144015708801000003000000D201000001000000C6
S214401580D201000001000000B80100000100000088
S2144015908801000001000000D201000002000000A7
S2144015A0D201000001000000D2010000010000004E
S2144015B0B8010000010000008801000001000000A2
S2144015C04B020000010000000B020000010000007A
S2144015D0D201000001000000D2010000010000001E
S2144015E00B02000001000000B801000001000000EE
S2144015F0B801000001000000B80100000100000032
S2144016000000000001000000B801000001000000DA
S2144016100B02000001000000B801000001000000BD
S214401620B801000001000000B80100000200000000
S214401630B8010000010000005D010000010000004C
S21440164026010000010000005D01000001000000CE
S21440165088010000010000000000000000000000BB
S2144016600000000000000000000000000000000035
S2144016700000000000000000000000000000000025
S2144016800000000000000000000000000000000015
S2144016900000000000000000000000000000000005
S2144016A000000000000000000000000000000000F5
S2144016B000000000000000000000000000000000E5
S2144016C000000000000000000000000000000000D5
S2144016D000000000000000000000000000000000C5
S2144016E000000000000000000000000000000000B5
S2144016F000000000000000000000000000000000A5
S2144017000000000000000000000000000000000094
S2144017100000000000000000000000000000000084
S2144017200000000000000000000000000000000074
S2144017300000000000000000000000000000000064
S2144017400000000000000000000000000000000054
S2144017500000000000000000000000000000000044
S2144017600000000000000000000000000000000034
S2144017700000000000000000000000000000000024
S2144017800000000000000000000000000000000014
S2144017900000000000000000000000000000000004
S2144017A000000000000000000000000000000000F4
S2144017B000000000000000000000000000000000E4
S2144017C0900100000000000001000000D20100006F
S2144017D002000000B801000001000000D201000035
S2144017E001000000B801000002000000D201000025
S2144017F002000000B801000002000000880100005E
S2144018000500000000000000030000005D0100002D
S214401810010000005D010000010000005D010000C5
S21440182002000000B8010000020000005D01000058
S214401830030000000000000003000000D20100008A
S21440184001000000D201000001000000D2010000AB
S21440185002000000B801000001000000D2010000B4
S21440186002000000B80100000100000088010000EE
S2144018700500000000000000030000005D010000BD
S214401880010000005D010000010000005D01000055
S214401890010000005D01000001000000B8010000EA
S2144018A0020000005D010000030000000000000090
S2144018B0040000000000000003000000D201000009
S2144018C001000000D201000001000000D20100002B
S2144018D002000000B801000001000000D201000034
S2144018E002000000B801000001000000880100006E
S2144018F0020000005D01000002000000B801000088
S214401900020000000000000001000000B8010000D6
S21440191001000000B801000001000000B80100000E
S21440192002000000B8010000010000000B020000A9
S214401930030000000B020000020000000B02000043
S21440194002000000D201000002000000000000007B
S21440195002000000D201000001000000D201000099
S21440196001000000D201000002000000B8010000A3
S21440197001000000D201000002000000B801000093
S2144019800100000088010000020000005D01000028
S21440199002000000B8010000020000000000000045
S2144019A001000000B801000001000000B80100007E
S2144019B001000000B801000002000000B80100006D
S2144019C0010000000B020000030000000B020000B4
S2144019D0020000000B02000002000000D2010000DE
S2144019E002000000B801000002000000880100006C
S2144019F0050000000000000000000000000000009D
S214401A000000000000000000000000000000000091
S214401A100000000000000000000000000000000081
S214401A200000000000000000000000000000000071
S214401A300000000000000000000000000000000061
S214401A400000000000000000000000000000000051
S214401A500000000000000000000000000000000041
S214401A600000000000000000000000000000000031
S214401A700000000000000000000000000000000021
S214401A800000000000000000000000000000000011
S214401A900000000000000000000000000000000001
S214401AA000000000000000000000000000000000F1
S214401AB000000000000000000000000000000000E1
S214401AC000000000000000000000000000000000D1
S214401AD000000000000000000000000000000000C1
S214401AE00000000090010000000000000000000020
S214401AF000000000000000000000000000000000A1
S214401B000000000000000000000000000000000090
S214401B100000000000000000000000000000000080
S214401B200000000000000000000000000000000070
S214401E00000000000000000000000000B8010000D4
S214401E1002000000B801000002000000B801000007
S214401E20020000005D010000010000000B020000FF
S214401E3001000000B8010000020000005D01000043
S214401E40010000000B02000001000000B801000085
S214401E50040000009302000002000000930200000D
S214401E60020000009302000002000000BA020000D8
S214401E70010000000B020000010000009F0100006E
S214401E80020000005D010000010000000B0200009F
S214401E9001000000B801000004000000000000003F
S214401EA000000000000000000000000000000000ED
S214401EB000000000000000000000000000000000DD
S214401EC000000000000000000000000000000000CD
S214401ED000000000000000000000000000000000BD
S214402120000000000000000000000000F00000007A
S2144021307003000002000000B8010000010000002B
S214402140B80100000100000070030000020000001B
S2144021503F030000010000001003000001000000E3
S214402160E402000001000000BA0200000100000086
S214402170E402000001000000D2010000010000005F
S2144021806E020000020000004B020000010000004A
S2144021902A020000010000000B02000001000000BF
S2144021A0EE010000010000000B02000001000000EC
S2144021B05D01000001000000720100000200000006
S2144021C05D010000010000007201000001000000F7
S2144021D00B02000002000000B801000001000000F1
S2144021E00B02000001000000930200000400000003
S2144021F0000000000000000000000000000000009A
S2144022000000000000000000000000000000000089
S2144022100000000000000000000000000000000079
S2144022200000000000000000000000000000000069
S214402450F000000000000000000000000000000047
S2144024600000000000000000000000000000000027
S2144024700000000000000000000000000000000017
S2144024800000000000000000000000000000000007
S21440249000000000000000000000000000000000F7
S214402770000000000000000000120E40000E0E4058
S21440278000100E4000000040010000000400000061
S2144027904A0100000100000088010000010000001E
S2144027A0B801000002000000B8010000010000006F
S2144027B00000000001000000B80100000100000019
S2144027C0EE010000010000000B02000002000000C5
S2144027D00B020000010000000000000001000000A5
S2144027E00B020000010000004B0200000100000048
S2144027F0EE01000002000000EE01000001000000B3
S2144028000000000001000000B801000001000000C8
S2144028108801000001000000B8010000030000002D
S21440282000000000010000004A0100000100000016
S2144028308801000001000000B8010000020000000E
S214402840B801000001000000000000000100000088
S214402850B801000001000000EE0100000100000089
S2144028600B020000020000000B0200000100000006
S21440287000000000010000000B0200000100000004
S2144028804B02000001000000EE01000002000000C4
S214402890EE01000001000000000000000100000002
S2144028A0B80100000100000088010000010000009F
S2144028B0B801000003000000000000000100000016
S2144028C04A010000010000008801000001000000ED
S2144028D0B801000002000000B8010000010000003E
S2144028E00000000001000000B801000001000000E8
S2144028F00B020000010000004B0200000200000036
S2144029004B02000001000000000000000100000033
S2144029104B0200000100000093020000010000008E
S214402920BA02000002000000BA02000001000000E7
S21440293000000000010000009302000001000000BB
S2144029404B0200000100000093020000010000005E
S214402950B801000002000000000000000100000076
S214402960B801000001000000EE0100000100000078
S2144029700B020000020000000B02000001000000F5
S21440298000000000010000004B02000002000000B2
S2144029909302000001000000B801000002000000A1
S2144029A00000000001000000B80100000100000027
S2144029B00B02000001000000EE01000002000000D3
S2144029C0EE010000010000000000000001000000D1
S2144029D00B02000001000000B801000001000000EA
S2144029E0EE010000030000000000000003000000AD
S2144029F00000000000000000000000000000000092
S214402A000000000000000000000000000000000081
S214402A100000000000000000000000000000000071
S214402A200000000000000000000000000000000061
S214402A300000000000000000000000000000000051
S214402A400000000000000000000000000000000041
S214402A500000000000000000000000000000000031
S214402A600000000000000000000000000000000021
S214402A700000000000000000000000000000000011
S214402A800000000000000000000000000000000001
S214402A9000000000000000000000000000000000F1
S214402AA000000000000000000000000000000000E1
S214402AB09001000000000000000000000000000040
S214402AC000000000000000000000000000000000C1
S214402AD000000000000000000000000000000000B1
S214402AE000000000000000000000000000000000A1
S214402AF00000000000000000000000000000000091
S214402DD0000000000000000000000000341C4020FE
S214402DE09C1C4020041D4020000000000000000005
S214402DF0000000000000000000000000000000008E
S214402E00000000000000000000000000000000007D
S214402E10000000000000000000000000000000006D
S214402E20000000000000000000000000000000005D
S214402E30000000000000000000000000000000004D
S214402E40000000000000000000000000000000003D
S214402E50000000000000000000000000000000002D
S214402E60000000000000000000000000000000001D
S214402E70000000000000000000000000000000000D
S214402E8001000000000000000E33CDAB34126DE6AA
S214402E90ECDE05000B000000000000000000000013
S214402EA000000000000000000000000000000000DD
S214402EB000000000000000000000000000000000CD
S214402EC000000000000000000000000000000000BD
S214402ED000000000000000000000000000000000AD
S2084032000C1E4020FB
S8044008CDE6
